:040000005BEF00F0C2
:10000800FACFA8F0FBCFA9F0E9CFAAF077EF06F076
:10001800D8CF1DF0E8CF1EF0E0CF1FF0FACF20F0C8
:10002800FBCF21F0E9CF22F0EACF23F0E1CF24F093
:10003800E2CF25F0D9CF26F0DACF27F0F3CF28F09A
:10004800F4CF29F0F6CF2AF0F7CF2BF0F8CF2CF029
:10005800F5CF2DF09EA003D09E9058EC0EF09EAAEE
:1000680003D09E9AFAEC0AF02DC0F5FF2CC0F8FFD9
:100078002BC0F7FF2AC0F6FF29C0F4FF28C0F3FF02
:1000880027C0DAFF26C0D9FF25C0E2FF24C0E1FF60
:1000980023C0EAFF22C0E9FF21C0FBFF20C0FAFF0E
:1000A8001FC0E0FF1EC0E8FF1DC0D8FF1000AEEF64
:1000B8000EF0000E0001886F000E0001836F000E25
:1000C8000001876F000E0001866F000E0001846F2B
:1000D800C6AC24D0C69C000120EE0CF00001C5512E
:1000E800D9260001C651DA22050EDF6E010E000185
:1000F800846F000120EE0EF00001C551D9260001E1
:10010800C651DA22DF2A000120EE0DF00001C551A8
:10011800D9260001C651DA22040EDF6EC7A005D029
:10012800C9CF85F0010E0001886F0001846797D15F
:1001380080D1C7A694D10001885199EC09F000013B
:1001480020EE0CF00001C551D9260001C651DA2273
:10015800080EDF6284D1000E0001886F010E0001D5
:10016800866F7DD1C7A82AD0000120EE0BF00001D0
:10017800C551D9260001C651DA22DF2A000188516B
:10018800D8B44CD1C7BA04D0010E0001876F46D14C
:10019800000120EE0EF00001C551D9260001C6511C
:1001A800DA22DF2A000120EE0DF00001C551D92620
:1001B8000001C651DA22060EDF6E30D100018851E7
:1001C800D8B44DD1000120EE0BF00001C551D9265D
:1001D8000001C651DA22DF2AC7BA19D0C7B40BD03A
:1001E800000120EE0CF00001C551D9260001C651CE
:1001F800DA22070E6DD0000120EE0CF00001C55187
:10020800D9260001C651DA22080EDF6E00D100019E
:1002180020EE0EF00001C551D9260001C651DA22A0
:10022800DF2A000120EE0CF00001C551D92600019B
:10023800C651DA22050EDF6E000120EE0DF0000136
:10024800C551D9260001C651DA22060E41D0000157
:1002580020EE1AF00001C551D9260001C651DA2254
:10026800DF50486E000120EE19F00001C551D92673
:100278000001C651DA22DF50485CD8B0CFD0000167
:1002880020EE1AF00001C551D9260001C651DA2224
:10029800DF50486E4850010D0F0EF326000EF42271
:1002A800F3500001C525D96EF4500001C621DA6E5D
:1002B800DF50C96E000120EE1AF00001C551D926A1
:1002C8000001C651DA22DF2A010E0001836FC7D070
:1002D800DF6EC5D0C7A858D0000120EE0BF0000192
:1002E800C551D9260001C651DA22DF2A00018851FA
:1002F800D8B446D0C7AA23D0000120EE0AF00001E6
:10030800C551D9260001C651DA22DF50486E48503F
:10031800010DF3500001C525D96EF4500001C62126
:10032800DA6E000185C0DFFF000120EE0AF000014F
:10033800C551D9260001C651DA22DF2A21D0000191
:1003480020EE0EF00001C551D9260001C651DA226F
:10035800DF2A000120EE0DF00001C551D926000169
:10036800C651DA22060EDF6E000120EE0CF0000105
:10037800C551D9260001C651DA22050EDF6E4ED0CE
:10038800010E0001876F4AD000018851D8B467D0A8
:10039800000120EE0BF00001C551D9260001C6511D
:1003A800DA22DF2AC7AA23D0000120EE0AF00001D2
:1003B800C551D9260001C651DA22DF50486E48508F
:1003C800010DF3500001C525D96EF4500001C62176
:1003D800DA6E000185C0DFFF000120EE0AF000019F
:1003E800C551D9260001C651DA22DF2A38D0C7A460
:1003F800CFD6000120EE0CF00001C551D92600012E
:10040800C651DA22080EDF6E010E0001876F010E59
:100418000001866F000E0001886F21D0000120EED8
:100428000CF00001C551D9260001C651DA22050E8B
:100438004FD7000120EE0CF00001C551D92600016C
:10044800C651DA22DF50050AD8B473D6030AD8B4E5
:1004580089D6010AD8B43ED70F0AD8B4F8D6000115
:10046800886704D000018351D8B402D0C6A8C688D2
:10047800000120EE0AF00001C551D9260001C6513D
:10048800DA22080EDF6423D00001876720D000013C
:1004980020EE0CF00001C551D9260001C651DA2220
:1004A800050EDF6E000120EE0EF00001C551D926C1
:1004B8000001C651DA22DF2A000120EE0DF000010A
:1004C800C551D9260001C651DA22070EDF6E000198
:1004D8008751D8B43AD0000120EE0BF00001C55185
:1004E800D9260001C651DA22000110EE0AF00001F7
:1004F800C551E1260001C651E222E750486E485036
:10050800010DF3500001C525E16EF4500001C6212C
:10051800E26EDFCFE7FF280E446E0001C6C046F04A
:100528000001C5C045F0000120EE0AF00001C551E8
:10053800D9260001C651DA22DF50486E4828E6EC79
:100548000EF0000120EE0AF03ED0000120EE0EF081
:100558000001C551D9260001C651DA22DF50D8B4AE
:100568003AD0000120EE0EF00001C551D926000155
:10057800C651DA22DF500001806F000120EE0DF035
:100588000001C551D9260001C651DA22DF50000109
:10059800816F000120EE0BF00001C551D926000142
:1005A800C651DA22DF500001826F290E446E000125
:1005B800000E466E0001800E456E030EE6EC0EF04E
:1005C800000120EE0EF00001C551D9260001C651E8
:1005D800DA22000EDF6E00018651D8B412002A0E0E
:1005E800446E0001C6C046F00001C5C045F0000ECB
:1005F800E6EC0EF0000E0001866F1200820ED36E3C
:100608009B9C4DEC0FF00101010E0001B96F010137
:10061800CA0E0001B86F1CEC0FF00101010E0001B9
:10062800B96F0101D60E0001B86FC2EC0BF00101E1
:10063800010E0001B96F0101C80E0001B86F44EC4A
:100648000FF0E2EC0CF0000E936E000E8A6E960E20
:10065800C1EC0EF0F50E28EC0EF09F909F9A9F8645
:10066800800E86EC0EF09D86000E0001B96F190E03
:100678000001B86F6C0E44EC0BF086EC0FF086ECC2
:100688000CF00101010E0101AF6F0101D50E01014E
:10069800AE6F0101010E0101B16F0101BA0E010136
:1006A800B06F0A0EF4EC0DF00101D46F0101D4BF54
:1006B80063D051D00101010E0001B96F0101C50ECF
:1006C8000001B86F01010001D5C1BAF00001BB6B90
:1006D8000101D4510001BC6F0001BD6B0001BCBF1A
:1006E800BD070101010E0001BF6F0101BA0E000133
:1006F800BE6F79EC0FF040D0BAC1C7F13DD0BAC196
:10070800B8F1BBC1B9F138D0020E0101D46F0101B3
:10071800BA690101BB6905D00101C751AA0AD8B459
:10072800F3D70101D1670DD001010001D0C1B9F0A3
:1007380001010001CFC1B8F00101D25136EC08F037
:100748001BD0000E0001B96F000E0001B86F000E3B
:1007580036EC08F011D00101D5510A0AD8B4AAD74D
:10076800220AD8B4C9D7010AD8B4C6D7030AD8B45C
:10077800D3D7190AD8B4C3D70101010E0101AF6F4D
:100788000101D50E0101AE6F0101010E0101B16F2A
:100798000101BA0E0101B06F0A0ED9EC0DF001018A
:1007A800D46F0101D4BF6BD743D00101010E010101
:1007B800B16F0101C80E0101B06F0101D5C1B2F1DD
:1007C8000101B36B0101D4510101B46F0101B56B93
:1007D8000101B4BFB5070101010E0101B76F0101A5
:1007E800BA0E0101B66F57EC0CF049D70101010EA2
:1007F8000001B96F0101CF0E0001B86F01010001BE
:10080800D5C1BAF00001BB6B0101D4510001BC6F26
:100818000001BD6B0001BCBFBD070101010E000155
:10082800BF6F0101BA0E0001BE6F85EC0BF027D730
:100838000101D5510B0AD8B4B8D7150AD8B4D6D700
:10084800010AD8B4D3D71BD73BC03FF0406A416AEE
:100858003A343F3601E340803F50446E3EC03FF09B
:10086800406A416A3D343F3601E340803F50436E61
:100878004450D8B40CD04350445CD8B00FD0445046
:10088800000843243F6E190E3F5CD8A007D03CC037
:1008980039F03DC03AF03EC03BF012004350D8B4A6
:1008A8000CD04450435CD8B00FD0435000084424C7
:1008B8003F6E190E3F5CD8A007D039C039F03AC056
:1008C8003AF03BC03BF01200060E426E3BBE428E31
:1008D8003EBE428C3A8EFF0E3916FF0E3A16000EB7
:1008E8003B163D8EFF0E3C16FF0E3D16000E3E16C3
:1008F8004350445CD8B01AD0D8903C363D363E368A
:10090800430643504418D8B40DD0420642C03FF0C5
:10091800070E3F16D8B406D0EFD7D8903B323A32FC
:100928003932442A43504462F8D71DD04450435CBE
:10093800D8B019D0D89039363A363B3644064350A9
:100948004418D8B40DD0420642C03FF0070E3F16F7
:10095800D8B406D0EFD7D8903E323D323C32432A45
:1009680043504462F8D742AE0CD0FF0E391AFF0E3E
:100978003A1AFF0E3B1A010E3926000E3A22000ED3
:100988003B2242AC0CD0FF0E3C1AFF0E3D1AFF0E64
:100998003E1A010E3C26000E3D22000E3E22000E9D
:1009A800426E39503C263A503D223B503E223EAEE4
:1009B8000ED0FF0E3C1AFF0E3D1AFF0E3E1A010E16
:1009C8003C26000E3D22000E3E22010E426E3CC027
:1009D8002EF03DC02FF03EC030F044C031F042C090
:1009E80032F0A6EC0AF02EC039F02FC03AF030C031
:1009F8003BF01200000197C099F000019A6B9B6BC5
:100A0800000196350001993701E39A810001995157
:100A18000001A36F0001A3670DD0000E0001956FC0
:100A2800000E0001966F000E0001976F000E000186
:100A3800986F1200170E0001996F000195C09AF087
:100A4800000196C09BF0000197C09CF00001992915
:100A580000019D6F05D00001D8909C339B339A33D9
:100A680000019D2FF8D700019A5100019E6F0001E7
:100A7800968FFF0E00019517FF0E00019617000EC6
:100A8800000197170001955100019F6F00019651D1
:100A98000001A06F000197510001A16F0001A26B36
:100AA8008E0E0001A35F0001A3AF26D00001A35161
:100AB800800A0001996FF10E800A0001995DD8B093
:100AC8000DD0000E0001956F000E0001966F000E0C
:100AD8000001976F000E0001986F12000001D89076
:100AE8000001A2330001A1330001A03300019F33AC
:100AF8000001A33FF3D720D0170E0001A36519D03A
:100B0800000E0001956F000E0001966F000E0001A7
:100B1800976F000E0001986F12000001D890000135
:100B28009F370001A0370001A1370001A23700015B
:100B3800A3070001A367F1D700019E51D8B40FD0D5
:100B48000001A21F0001A11F0001A01F00019F6D4D
:100B5800000E0001A0230001A1230001A2239FC0D1
:100B680095F0A0C096F0A1C097F0A2C098F012002E
:100B7800000188C08CF000018D6B8E6B00018735F9
:100B880000018C3701E38D8100018C5100018F6FCA
:100B980000018F670AD0000E0001866F000E000169
:100BA800876F000E0001886F120000018BC08CF067
:100BB80000018D6B8E6B00018A3500018C3701E3D3
:100BC8008D8100018C510001946F000194670AD057
:100BD800000E0001866F000E0001876F000E0001F5
:100BE800886F1200000194517B0F00018F2788C085
:100BF80094F000018B510001941B800E00019417A2
:100C08000001878F00018A8FFF0E00018917FF0EF0
:100C180000018A17000E00018B17000E0001906F6B
:100C2800000E0001916F000E0001926F070E000187
:100C3800936F000186A10CD0000189510001902713
:100C480000018A510001912300018B510001922378
:100C58000001D890000188330001873300018633F2
:100C68000001D8900001893700018A3700018B37CD
:100C78000001932FDED7090E0001936F000186A1B2
:100C88000CD0000189510001902700018A51000110
:100C9800912300018B51000192230001D89000019B
:100CA800883300018733000186330001D8900001A2
:100CB800923300019133000190330001932FDED766
:100CC80090C02EF091C02FF092C030F08FC031F05C
:100CD80094C032F0A6EC0AF02EC086F02FC087F040
:100CE80030C088F01200EACFABF0E1CFACF0E2CF31
:100CF800ADF0D9CFAEF0DACFAFF0F3CFB0F0F4CF9C
:100D0800B1F0F6CFB2F0F7CFB3F0F8CFB4F0F5CF3B
:100D1800B5F09EA603D09E965DEC00F0F2A403D039
:100D2800F294B4EC0CF09EAC6AD09E9C000E0001CC
:100D3800B76F000E0001B66FC350C4CFA4F0000116
:100D4800A56BA4C0A5F00001A46B0001A4110001CB
:100D5800B66F0001A5510001B76F000E0001896F41
:100D6800000E00018A6F400E00018B6F5C0E3C6E16
:100D7800870E3D6EC10E3E6EB6C036F0B7C037F076
:100D8800F8EC0EF036C039F037C03AF038C03BF016
:100D980028EC04F039C048F03AC049F03BC04AF0AA
:100DA800D80E456E130E466E460E476EB3EC07F02E
:100DB80045C086F046C087F047C088F0BCEC05F017
:100DC80086C095F087C096F088C097F0FEEC04F0D6
:100DD80095C0A4F096C0A5F097C0A6F098C0A7F05B
:100DE800A4C0B6F0A5C0B7F0330E446E0001B7C07A
:100DF80046F00001B6C045F0020EE6EC0EF035EC08
:100E08000DF0B5C0F5FFB4C0F8FFB3C0F7FFB2C02E
:100E1800F6FFB1C0F4FFB0C0F3FFAFC0DAFFAEC059
:100E2800D9FFADC0E2FFACC0E1FFABC0EAFFAAC08A
:100E3800E9FFA9C0FBFFA8C0FAFF1100010120EEDD
:100E480035F00101A251D9260101A351DA22DF5060
:100E58000101A96F0101A9510D0DF3500101A2254E
:100E68000101AC6FF4500101A3210101AD6F010E26
:100E7800ACC1D9FFADC1DAFFDF626FD0010120EE4E
:100E880001F00101AC51D9260101AD51DA22DF5040
:100E98000101A45DD8B002D0FD0E1200010120EEC0
:100EA80001F00101AC51D9260101AD51DA22DF5020
:100EB8000001C26F0001C2510101AA6F0101AB6BB1
:100EC80001010001A8C1B9F001010001A7C1B8F0F2
:100ED800030E0101AC250001C26F000E0101AD2116
:100EE8000001C36FC2C0BAF0C3C0BBF0AAC1BCF056
:100EF800ABC1BDF00DEC0DF0010120EE35F00101A4
:100F0800A251D9260101A351DA22010110EE35F0D0
:100F18000101A251E1260101A351E222E75000019B
:100F2800C26F0001C229030BDF6E010120EE02F03F
:100F38000101AC51D9260101AD51DA22A5C1E1FF69
:100F4800A6C1E2FFDFCFE7FFACC1D9FFADC1DAFF31
:100F5800000EDF6E0101AA511200FC0E120047C0FC
:100F68004BF04C6A4D6A46344B3601E34C804B508B
:100F78000001846F0001846707D0000E456E000EE3
:100F8800466E000E476E12004AC04BF04C6A4D6A1E
:100F980049344B3601E34C804B500001856F00010A
:100FA800856707D0000E456E000E466E000E476E30
:100FB8001200000E0001816F000E0001826F000E0A
:100FC8000001836F00018551890F0001845F47C0CC
:100FD80085F04A500001851B800E00018517468E5A
:100FE800FF0E4516FF0E4616000E4716498EFF0ED9
:100FF8004816FF0E4916000E4A16180E0001806F9B
:101008000001D89000018137000182370001833741
:101018004850455C495046584A504758D8A008D0CF
:101028004850455E4950465A4A50475A0001818106
:10103800D8904536463647360001802FE1D781C023
:101048002EF082C02FF083C030F084C031F085C00C
:1010580032F0A6EC0AF02EC045F02FC046F030C0A2
:1010680047F012000001BC6F000120EE19F00001EA
:10107800C551D9260001C651DA22000EDF6E3ED0D6
:10108800000120EE19F00001C551D9260001C65112
:10109800DA22DF500001BA6F0001BA51010DF35096
:1010A8000001B825D96EF4500001B921DA6E0001AB
:1010B80010EE19F00001C551E1260001C651E222E7
:1010C800E7500001BB6F0001BB51010D0F0EF32665
:1010D800000EF422F3500001C525E16EF450000122
:1010E800C621E26EDFCFE7FF000120EE19F0000114
:1010F800C551D9260001C651DA22DF2A000120EEA7
:1011080019F00001C551D9260001C651DA22DF5075
:101118000001BA6F0001BC510001BA5DD8A0B0D778
:10112800000120EE19F00001C551D9260001C65171
:10113800DA220001BCC0DFFF000120EE1AF0000136
:10114800C551D9260001C651DA22010EDF6E000111
:1011580020EE0FF00001C551D9260001C651DA2250
:10116800DF50C96EC68812000101A4C1A8F10101AF
:10117800A96B010120EE34F00101A251D926010129
:10118800A351DA22DF500101AA6F0101AA510D0D06
:10119800F3500101A2250101AB6FF4500101A32115
:1011A8000101AC6FABC1D9FFACC1DAFFDF50D8B4D5
:1011B80002D0FF0E1200010120EE01F00101AB5137
:1011C800D9260101AC51DA220101A4C1DFFF0101D6
:1011D80020EE02F00101AB51D9260101AC51DA220F
:1011E8000101A5C1DFFF030E0101AB250001B86FA6
:1011F800000E0101AC210001B96F01010001A7C176
:10120800BBF001010001A6C1BAF0A8C1BCF0A9C198
:10121800BDF00DEC0DF0010120EE34F00101A251FA
:10122800D9260101A351DA22010110EE34F001019F
:10123800A251E1260101A351E222E7500001C26F49
:101248000001C229030BDF6EABC1D9FFACC1DAFFC5
:10125800010EDF6E010E120020EE35F03850D9264F
:101268003950DA22DF50416E41500D0DF3503824C9
:10127800446EF4503920456E010E44C0D9FF45C074
:10128800DAFFDF6250D020EE01F04450D9264550F5
:10129800DA22DF503A5CD8B002D0FD0E120020EE00
:1012A80001F04450D9264550DA22DF503F6E3F50B6
:1012B800426E436A3EC02FF03DC02EF0030E442418
:1012C8003F6E000E4520406E3FC030F040C031F008
:1012D80042C032F043C033F07CEC0DF020EE35F024
:1012E8003850D9263950DA2210EE35F03850E12638
:1012F8003950E222E7503F6E3F28030BDF6E20EEA5
:1013080002F04450D9264550DA223BC0E1FF3CC0E8
:10131800E2FFDFCFE7FF44C0D9FF45C0DAFF000E88
:10132800DF6E42501200FC0E12002E6E000120EEFD
:101338000BF00001C551D9260001C651DA22010E71
:10134800DF6E000120EE0AF00001C551D926000128
:10135800C651DA22000EDF6E2E50D8B43DD0C7AA8F
:1013680021D0000120EE0CF00001C551D926000162
:10137800C651DA22050EDF6E000120EE0EF00001E4
:10138800C551D9260001C651DA22DF2A000120EE14
:101398000DF00001C551D9260001C651DA22050E0B
:1013A800DF6E1200C7A40CD0000120EE0CF0000183
:1013B800C551D9260001C651DA22080EDF6E120087
:1013C800000120EE0CF00001C551D9260001C651DC
:1013D800DA22070EDF6E1200000120EE0CF0000189
:1013E800C551D9260001C651DA22060EDF6E120059
:1013F8000DC012F0136A20EE34F00B50D9260C50B1
:10140800DA22DF50146E14500D0DF3500B24156EB4
:10141800F4500C20166E15C0D9FF16C0DAFFDF5045
:10142800D8B402D0FF0E120020EE01F01550D926D4
:101438001650DA220DC0DFFF20EE02F01550D92633
:101448001650DA220EC0DFFF030E1524016E000EBF
:101458001620026E10C004F00FC003F012C005F091
:1014680013C006F05CEC0DF020EE34F00B50D926DA
:101478000C50DA2210EE34F00B50E1260C50E22228
:10148800E750116E1128030BDF6E15C0D9FF16C087
:10149800DAFF010EDF6E010E12003AC03FF0406A1B
:1014A80020EE34F03850D9263950DA22DF50416E18
:1014B80041500D0DF3503824426EF4503920436EDC
:1014C80042C0D9FF43C0DAFFDF50D8B402D0FF0EC4
:1014D800120020EE01F04250D9264350DA223AC0D9
:1014E800DFFF20EE02F04250D9264350DA223BC0FB
:1014F800DFFF030E42242E6E000E43202F6E3DC0E8
:1015080031F03CC030F03FC032F040C033F07CECEA
:101518000DF020EE34F03850D9263950DA2210EE8A
:1015280034F03850E1263950E222E7503E6E3E282A
:10153800030BDF6E42C0D9FF43C0DAFF010EDF6E36
:10154800010E12003150D8B405D02E502F10301093
:10155800D8A40CD0000E2E6E000E2F6E000E306E2A
:101568001200312AD89030322F322E32000E2E142B
:10157800336E000E2F14346EFE0E3014356E335059
:1015880034103510D8B40CD0ECD7312A010E2E26E1
:10159800000E2F22000E3022D89030322F322E32F9
:1015A800000E2E14336E000E2F14346EFF0E3014FE
:1015B800356E335034103510D8B406D0E6D731061E
:1015C800D8902E362F3630362FAEF9D731A02F9E31
:1015D800D8903132315030123250D8A4308E2EC0CB
:1015E8002EF02FC02FF030C030F012009EAA3AD053
:1015F80020EE04F04E50D9264F50DA22DF501B6EF1
:101608001B50010DF3504E24D96EF4504F20DA6E62
:101618002BEC0FF0DF6E20EE04F04E50D9264F5021
:10162800DA22DF2A20EE04F04E50D9264F50DA2273
:10163800040EDF6217D01F0E176E4FC019F04EC090
:1016480018F020EE04F04E50D9264F50DA22DF5021
:10165800D4EC0EF020EE04F04E50D9264F50DA228A
:10166800000EDF6E51A61200AB98AB881E0E176EE7
:10167800000E196E000E186E000ED4EC0EF012005B
:101688000001BD6F000EAC6E000EAB6E0001BDB167
:10169800AC880001BDA302D0AC8CAB8C0001BDB5F9
:1016A800AC8E0001BDA702D0AB8801D0AB8A000187
:1016B800BDB9AC849E980001BDBBAB860001BDAD31
:1016C80002D09D8A01D09D9A9E9A0001BDAF02D09A
:1016D8009D8801D09D98B8C0AFFF0001B9C0BAF08D
:1016E800BAC0BBF00001BC6B0001BB51B06EAC8A44
:1016F800AB8E949C948EACA81200ACBE1200948C55
:1017080012000001BA511E0ABB11D8B41200000120
:10171800BA511F0ABB11D8A412000001BC51000124
:10172800BE25D96E0001BD510001BF21DA6E000E41
:10173800DF6EB8C0D9FFB9C0DAFF0001BEC0DEFF56
:101748000001BFC0DDFF000120EE02F00001B8512A
:10175800D9260001B951DA22000EDF6E000120EE11
:1017680003F00001B851D9260001B951DA2200016D
:10177800BCC0DEFF0001BDC0DDFF12000001B9C022
:10178800C6F00001B8C0C5F0000120EE0AF0000163
:10179800C551D9260001C651DA22000EDF6E0001BC
:1017A80020EE0BF00001C551D9260001C651DA22FE
:1017B800000EDF6E000120EE0CF00001C551D926A5
:1017C8000001C651DA22050EDF6E000120EE0EF090
:1017D8000001C551D9260001C651DA22000EDF6E7C
:1017E8001200000120EE34F00001B851D9260001A2
:1017F800B951DA22000EDF6E000120EE35F000014B
:10180800B851D9260001B951DA22000EDF6E000E58
:101818000001BA6F030E0001BA6501D01200000181
:10182800BA510D0DF3500001B825D96EF4500001DE
:10183800B921DA6E000EDF6E0001BA2B030E00012B
:10184800BA65EDD712000001BB51BA11D8B426D041
:10185800010E0001BC6F06D00001D890BA37BB3723
:101868000001BC2B0001BBAFF7D70001BA51000142
:10187800B85D0001BB510001B959D8A008D00001DA
:10188800BA510001B85F0001BB510001B95B00010A
:10189800D890BB33BA330001BC2FE7D7B8C0B8F033
:1018A800B9C0B9F01200B0C1D9FFB1C1DAFFDE2A60
:1018B800000EDD22B0C1D9FFB1C1DAFF0001DECFD1
:1018C800B8F00001DDCFB9F0000E0001BB6F0A0EC1
:1018D8000001BA6F27EC0CF00001B851090A0001A9
:1018E800B911D8A41200140E0101AD6F0101B1C1E4
:1018F800AFF10101B0C1AEF1020E41EC0EF00001F2
:10190800C46F1200BBEC0DF00001BD510001BC1109
:10191800D8B41200010E506E0101010E0001B96F1A
:101928000101360E0001B86F0FEC0EF00009D8B4B3
:1019380003D0000E506E12000101010E0001B96FB4
:1019480001016C0E0001B86F0FEC0EF00009D8B45D
:1019580003D0000E506E12000A0E3AEC0FF0DCD7DE
:10196800000E2F6E000E2E6E68EC0FF00001000EB8
:10197800476E0001820E466E0001000E496E00019E
:10198800840E486E020E9AEC0EF00001806F000182
:10199800816B000180BF810700018051020A81111B
:1019A800D8A412000A0E446E0001000E466E000113
:1019B800840E456E020EE6EC0EF01200000E506E1C
:1019C8000101010E0001B96F01016C0E0001B86F31
:1019D800F5EC0BF00101010E0001B96F0101360EA3
:1019E8000001B86FF5EC0BF00101010E0001B96FB1
:1019F8000101000E0001B86FF5EC0BF00201020EB8
:101A08000001B96F0201000E0001B86FF5EC0BF090
:101A180012000001BBC0C1F00001BAC0C0F0000153
:101A2800B9C0BFF00001B8C0BEF010D0C0C0D9FF27
:101A3800C1C0DAFFBEC0E1FFBFC0E2FFDFCFE7FFF2
:101A48000001C04BC12B0001BE4BBF2B0001BC07DE
:101A5800D8A0BD070001BC29D8B4BD29D8B412004C
:101A6800E5D7506601D012006FEC0EF031503010FF
:101A7800D8A4120080EC0FF02F502E10D8B412000A
:101A88000101010E2F6E0101360E2E6E0AEC0FF0C9
:101A98000009D8A412000101010E2F6E01016C0E7D
:101AA8002E6E0AEC0FF00009D8B48AEC0FF0120081
:101AB80004C00AF003C009F002C008F001C007F032
:101AC8000ED009C0D9FF0AC0DAFF07C0E1FF08C07D
:101AD800E2FFDFCFE7FF094A0A2A074A082A050674
:101AE800D8A006060528D8B40628D8B41200E9D725
:101AF80031C037F030C036F02FC035F02EC034F08A
:101B08000ED036C0D9FF37C0DAFF34C0E1FF35C088
:101B1800E2FFDFCFE7FF364A372A344A352A320652
:101B2800D8A033063228D8B43328D8B41200E9D75D
:101B3800F2AC07D0000E0001BB6F000E0001BA6FB7
:101B4800120071EC0FF00001B9510001B811D8B4BE
:101B580007D0000E0001BB6F000E0001BA6F120023
:101B6800000E0001BB6F010E0001BA6F12009CEC61
:101B78000DF00001BB510001BA11D8A40FD071ECCF
:101B88000FF00001B9510001B811D8A407D0000E18
:101B98000001BD6F010E0001BC6F1200000E0001B4
:101BA800BD6F000E0001BC6F12000001C46F01017F
:101BB800010E0101A36F01016C0E0101A26FC4C0E7
:101BC800A4F10101AFC1A6F10101AEC1A5F1010166
:101BD800B1C1A8F10101B0C1A7F122EC07F01200D0
:101BE8000001C46F0101010E0101A36F0101360E4E
:101BF8000101A26FC4C0A4F10101AFC1A6F10101A6
:101C0800AEC1A5F10101B1C1A8F10101B0C1A7F1AF
:101C180022EC07F01200000120EE35F00001B85167
:101C2800D9260001B951DA22DF500001BA6F00014C
:101C3800BA510D0DF3500001B825D96EF4500001CA
:101C4800B921DA6EDF5012000001B86F0001B851F7
:101C58007E0BCD6E0001B8AD02D0CD8E01D0CD9EE9
:101C6800000ECF6E000ECE6E9E900001B8AF02D06F
:101C78009D8001D09D90CD8012000001C36F0201AC
:101C8800020E0101A36F0201000E0101A26FC3C081
:101C9800A4F1ADC1A5F10101AFC1A7F10101AEC128
:101CA800A6F1B8EC08F012005FEC0FF001C01BF0D1
:101CB80002C01CF00B0E176E000E196E000E186E87
:101CC800000ED4EC0EF0000E026E000E016E56EC03
:101CD8000FF0C2821200F2AC05D0000E316E000E79
:101CE800306E120080EC0FF02F502E10D8B405D0B3
:101CF800000E316E000E306E1200000E316E010EB5
:101D0800306E12000001B86F94869488B8C0C8FF7E
:101D1800000EC76E000EC66E000EC56E0E0EC61201
:101D2800C78E94869488C580C68A12004A6E0201BE
:101D3800020E396E0201000E386E4AC03AF047C0F2
:101D48003CF046C03BF049C03EF048C03DF030ECA6
:101D580009F0120002EE00F0360EEE6AE806FDE128
:101D680001EE00F0A20EEE6AE806FDE1516A506A43
:101D7800000EF86E000102EF03F00001B86F0001D9
:101D8800B8517F0BD56E000ED76E000ED66EF2944A
:101D98000001B8AF02D0F28A01D0F29AD58E1200B3
:101DA8001A6E0101010E0C6E01016C0E0B6E1AC049
:101DB8000DF017C00EF019C010F018C00FF0FCECB1
:101DC80009F01200476E0101010E396E0101360E4D
:101DD800386E47C03AF044C03BF046C03DF045C0BD
:101DE8003CF051EC0AF0120036C02EF037C02FF04C
:101DF800306A8E0E316E000E326EA6EC0AF02EC0DE
:101E080036F02FC037F030C038F0120020EE35F031
:101E18002E50D9262F50DA22DF50306E30500D0D5B
:101E2800F3502E24D96EF4502F20DA6EDF501200B2
:101E38000001B9C04FF00001B8C04EF020EE04F028
:101E48004E50D9264F50DA22000EDF6E1200F20EE5
:101E58005116ABAC03D05190ABB05180ABB45184A8
:101E6800ABB25186AECF01F0015012000001B86F3D
:101E7800FA0E00F0E82EFDD70001B82FF9D71200AE
:101E8800B8C0D9FFB9C0DAFF000EDE6E000EDD6EF5
:101E980012009598959A959C959E8398839A839C11
:101EA800839E120001C003F002C004F004C0CFFFFB
:101EB80003C0CEFF1200CECF03F0CFCF04F003C093
:101EC80001F004C002F012002EC030F02FC031F033
:101ED80031C0D7FF30C0D6FF1200000EF2AE010E9F
:101EE8000001B86F0001B96B12000001BFC0C1F05A
:101EF8000001BEC0C0F01200000EF2AE010E2E6E40
:101F08002F6A1200D08EF28EF28C1200D38E03004C
:021F18001200B5
:067FF80080F4C5FFFFF15B
:00000001FF
