:040000005BEF00F0C2
:10000800FACFA8F0FBCFA9F0E9CFAAF00CEF07F0E0
:10001800D8CF1DF0E8CF1EF0E0CF1FF0FACF20F0C8
:10002800FBCF21F0E9CF22F0EACF23F0E1CF24F093
:10003800E2CF25F0D9CF26F0DACF27F0F3CF28F09A
:10004800F4CF29F0F6CF2AF0F7CF2BF0F8CF2CF029
:10005800F5CF2DF09EA003D09E90F6EC0FF09EAA4F
:1000680003D09E9A31EC0CF02DC0F5FF2CC0F8FFA0
:100078002BC0F7FF2AC0F6FF29C0F4FF28C0F3FF02
:1000880027C0DAFF26C0D9FF25C0E2FF24C0E1FF60
:1000980023C0EAFF22C0E9FF21C0FBFF20C0FAFF0E
:1000A8001FC0E0FF1EC0E8FF1DC0D8FF1000ADEF65
:1000B8000FF0000E0001826F000E00017D6F000E30
:1000C8000001816F000E0001806F000E00017E6F3D
:1000D800C6AC24D0C69C010120EE0CF00101C95128
:1000E800D9260101CA51DA22050EDF6E010E000180
:1000F8007E6F010120EE0EF00101C951D9260101E0
:10010800CA51DA22DF2A010120EE0DF00101C9519E
:10011800D9260101CA51DA22040EDF6EC7A005D024
:10012800C9CF7FF0010E0001826F00017E679FD169
:1001380088D1C7A69CD10001825179EC0BF001014E
:1001480020EE0CF00101C951D9260101CA51DA2269
:10015800080EDF628CD1000E0001826F010E0001D3
:10016800806F85D1C7A82AD0010120EE0BF00101CC
:10017800C951D9260101CA51DA22DF2A0001825168
:10018800D8B454D1C7BA04D0010E0001816F4ED142
:10019800010120EE0EF00101C951D9260101CA5111
:1001A800DA22DF2A010120EE0DF00101C951D9261A
:1001B8000101CA51DA22060EDF6E38D100018251E0
:1001C800D8B455D1010120EE0BF00101C951D9264F
:1001D8000101CA51DA22DF2AC7BA19D0C7B40BD035
:1001E800010120EE0CF00101C951D9260101CA51C3
:1001F800DA22070E71D0010120EE0CF00101C9517D
:10020800D9260101CA51DA22080EDF6E08D1010190
:1002180020EE0EF00101C951D9260101CA51DA2296
:10022800DF2A010120EE0CF00101C951D926010194
:10023800CA51DA22050EDF6E010120EE0DF0010130
:10024800C951D9260101CA51DA22060E45D0010149
:1002580020EE1AF00101C951D9260101CA51DA224A
:10026800DF500001796F010120EE19F00101C95139
:10027800D9260101CA51DA22DF500001795DD8B0D0
:10028800D5D0010120EE1AF00101C951D92601018A
:10029800CA51DA22DF500001796F00017951010D4E
:1002A8000F0EF326000EF422F3500101C925D96E72
:1002B800F4500101CA21DA6EDF50C96E010120EE47
:1002C8001AF00101C951D9260101CA51DA22DF2ADF
:1002D800010E00017D6FCBD0DF6EC9D0C7A85AD000
:1002E800010120EE0BF00101C951D9260101CA51C3
:1002F800DA22DF2A00018251D8B448D0C7AA25D013
:10030800010120EE0AF00101C951D9260101CA51A3
:10031800DA22DF500001796F00017951010DF350A5
:100328000101C925D96EF4500101CA21DA6E000114
:100338007FC0DFFF010120EE0AF00101C951D92673
:100348000101CA51DA22DF2A21D0010120EE0EF084
:100358000101C951D9260101CA51DA22DF2A010156
:1003680020EE0DF00101C951D9260101CA51DA2246
:10037800060EDF6E010120EE0CF00101C951D926ED
:100388000101CA51DA22050EDF6E50D0010E0001BC
:10039800816F4CD000018251D8B469D0010120EEA0
:1003A8000BF00101C951D9260101CA51DA22DF2A0D
:1003B800C7AA25D0010120EE0AF00101C951D926AA
:1003C8000101CA51DA22DF500001796F0001795129
:1003D800010DF3500101C925D96EF4500101CA215C
:1003E800DA6E00017FC0DFFF010120EE0AF0010193
:1003F800C951D9260101CA51DA22DF2A38D0C7A447
:10040800C7D6010120EE0CF00101C951D92601011E
:10041800CA51DA22080EDF6E010E0001816F010E4B
:100428000001806F000E0001826F21D0010120EED3
:100438000CF00101C951D9260101CA51DA22050E71
:100448004BD7010120EE0CF00101C951D926010159
:10045800CA51DA22DF50050AD8B46BD6030AD8B4D9
:1004680081D6010AD8B43AD70F0AD8B4F0D6000119
:10047800826704D000017D51D8B402D0C6A8C688CE
:10048800010120EE0AF00101C951D9260101CA5122
:10049800DA22080EDF6423D00001816720D0010131
:1004A80020EE0CF00101C951D9260101CA51DA2206
:1004B800050EDF6E010120EE0EF00101C951D926AB
:1004C8000101CA51DA22DF2A010120EE0DF00101F3
:1004D800C951D9260101CA51DA22070EDF6E00017F
:1004E8008151D8B441D0010120EE0BF00101C9516E
:1004F800D9260101CA51DA22010110EE0AF00101E0
:10050800C951E1260101CA51E222E7500001796F81
:1005180000017951010DF3500101C925E16EF45034
:100528000101CA21E26EDFCFE7FF280E0001756FD7
:1005380001010001CAC177F001010001C9C176F0CB
:10054800010120EE0AF00101C951D9260101CA5161
:10055800DA22DF500001796F000179290DEC10F0E3
:10056800010120EE0AF041D0010120EE0EF0010158
:10057800C951D9260101CA51DA22DF50D8B43DD079
:10058800010120EE0EF00101C951D9260101CA511D
:10059800DA22DF5000017A6F010120EE0DF001012F
:1005A800C951D9260101CA51DA22DF5000017B6FF7
:1005B800010120EE0BF00101C951D9260101CA51F0
:1005C800DA22DF5000017C6F290E0001756F0001EF
:1005D800000E0001776F00017A0E0001766F030E9E
:1005E8000DEC10F0010120EE0EF00101C951D926E1
:1005F8000101CA51DA22000EDF6E00018051D8B421
:1006080012002A0E0001756F01010001CAC177F0BE
:1006180001010001C9C176F0000E0DEC10F0000ECA
:100628000001806F120000016DC071F00001726B53
:10063800736B00016C350001713701E372810001B1
:1006480071510001766F000170C071F00001726B8A
:10065800736B00016F350001713701E3728100018E
:1006680071510001756F00017651D8B412D00001A4
:1006780075510001765DD8B013D00001765100089D
:10068800000175250001716F190E0001715DD8A078
:1006980007D06EC06BF06FC06CF070C06DF01200C8
:1006A80000017551D8B412D0000176510001755D72
:1006B800D8B013D00001755100080001762500015B
:1006C800716F190E0001715DD8A007D06BC06BF077
:1006D8006CC06CF06DC06DF01200060E0001746FF6
:1006E80000016DAF02D00001748F000170AF02D01D
:1006F8000001748D00016C8FFF0E00016B17FF0E57
:1007080000016C17000E00016D1700016F8FFF0EBE
:1007180000016E17FF0E00016F17000E0001701721
:10072800000175510001765DD8B02AD00001D8903B
:1007380000016E3700016F3700017037000175073F
:100748000001755100017619D8B414D0000174075E
:1007580074C071F0070E00017117D8B40BD0E6D73A
:100768000001D89000016D3300016C3300016B3338
:100778000001762B0001755100017663F1D72FD067
:10078800000176510001755DD8B029D00001D890DC
:1007980000016B3700016C3700016D3700017607E7
:1007A8000001755100017619D8B414D000017407FE
:1007B80074C071F0070E00017117D8B40BD0E6D7DA
:1007C8000001D8900001703300016F3300016E33CF
:1007D8000001752B0001755100017663F1D7000106
:1007E80074AF12D0FF0E00016B1BFF0E00016C1BD3
:1007F800FF0E00016D1B010E00016B27000E0001AA
:100808006C23000E00016D23000174AD12D0FF0EA1
:1008180000016E1BFF0E00016F1BFF0E0001701B15
:10082800010E00016E27000E00016F23000E00016B
:100838007023000E0001746F00016B5100016E27D8
:1008480000016C5100016F2300016D5100017023FC
:10085800000170AF15D0FF0E00016E1BFF0E0001E6
:100868006F1BFF0E0001701B010E00016E27000EAA
:1008780000016F23000E00017023010E0001746F48
:100888006EC060F06FC061F070C062F076C063F057
:1008980074C064F088EC09F060C06BF061C06CF063
:1008A80062C06DF01200E00ED36E9B8CBCEC10F0B1
:1008B8000101010E01016D6F0101A10E01016C6FB3
:1008C8008BEC10F00101010E01016D6F0101AD0EFD
:1008D80001016C6F27EC0DF00101010E01016D6F34
:1008E80001019F0E01016C6FB3EC10F048EC0EF0A3
:1008F800000E936E000E8A6E960E66EC10F0000ED7
:1009080001016C6F9B0E3FEC0FF09F909F9A9F86A2
:10091800800E52EC10F09D86000E01016D6F190ECD
:1009280001016C6F6C0EB8EC0CF092800F014891CD
:10093800C29CC29EC294C296C298C29AC19CC1501F
:10094800C70B0809C16EC150F80B0609C16EC18EEC
:10095800C2809E9C9D8CF28EF7EC10F01AEC0EF083
:100968000101010E0101856F0101AC0E0101846FC7
:100978000101010E0101876F0101910E0101866FCE
:100988000A0E78EC0FF00101AB6F0101ABBF60D02C
:100998004ED00101010E01016D6F01019C0E010194
:1009A8006C6F0101ACC16EF101016F6B0101AB51BC
:1009B8000101706F0101716B010170BF71070101C5
:1009C800010E0101736F0101910E0101726FF0ECCC
:1009D80010F03ED091C19EF13BD091C18FF192C1F0
:1009E80090F136D0020E0101AB6F0101916901014E
:1009F800926905D001019E51AA0AD8B4F3D7010122
:100A0800A8670BD00101A7C16DF10101A6C16CF166
:100A18000101A9510DEC0AF01BD0000E01016D6F08
:100A2800000E01016C6F000E0DEC0AF011D00101EF
:100A3800AC510A0AD8B4ADD7220AD8B4CBD7010A28
:100A4800D8B4C8D7030AD8B4D5D7190AD8B4C5D7E3
:100A58000101010E0101856F0101AC0E0101846FD6
:100A68000101010E0101876F0101910E0101866FDD
:100A78000A0E5DEC0FF00101AB6F0101ABBF6ED741
:100A880042D00101010E0101876F01019F0E010192
:100A9800866F0101ACC188F10101896B0101AB517D
:100AA80001018A6F01018B6B01018ABF8B0701016C
:100AB800010E01018D6F0101910E01018C6FBCECDB
:100AC8000DF04CD70101010E01016D6F0101A60E59
:100AD80001016C6F0101ACC16EF101016F6B010185
:100AE800AB510101706F0101716B010170BF71079A
:100AF8000101010E0101736F0101910E0101726F75
:100B08007BEC0CF02BD70101AC510B0AD8B4B9D748
:100B1800150AD8B4D7D7010AD8B4D4D71FD700013B
:100B280097C099F000019A6B9B6B00019635000104
:100B3800993701E39A81000199510001A36F0001DF
:100B4800A3670DD0000E0001956F000E0001966F8F
:100B5800000E0001976F000E0001986F1200170E2B
:100B68000001996F000195C09AF0000196C09BF0B2
:100B7800000197C09CF00001992900019D6F05D0E4
:100B88000001D8909C339B339A3300019D2FF8D7EE
:100B980000019A5100019E6F0001968FFF0E00011F
:100BA8009517FF0E00019617000E00019717000118
:100BB800955100019F6F000196510001A06F00013F
:100BC80097510001A16F0001A26B8E0E0001A35F77
:100BD8000001A3AF26D00001A351800A0001996F3C
:100BE800F10E800A0001995DD8B00DD0000E000109
:100BF800956F000E0001966F000E0001976F000EB2
:100C08000001986F12000001D8900001A233000182
:100C1800A1330001A03300019F330001A33FF3D7A4
:100C280020D0170E0001A36519D0000E0001956FA2
:100C3800000E0001966F000E0001976F000E000174
:100C4800986F12000001D89000019F370001A0376B
:100C58000001A1370001A2370001A3070001A36723
:100C6800F1D700019E51D8B40FD00001A21F000196
:100C7800A11F0001A01F00019F6D000E0001A0230D
:100C88000001A1230001A2239FC095F0A0C096F007
:100C9800A1C097F0A2C098F01200000188C08CF0A3
:100CA80000018D6B8E6B0001873500018C3701E3E5
:100CB8008D8100018C5100018F6F00018F670AD070
:100CC800000E0001866F000E0001876F000E000104
:100CD800886F120000018BC08CF000018D6B8E6B49
:100CE80000018A3500018C3701E38D8100018C51A8
:100CF8000001946F000194670AD0000E0001866F0E
:100D0800000E0001876F000E0001886F12000001BD
:100D180094517B0F00018F2788C094F000018B51FC
:100D28000001941B800E000194170001878F0001B9
:100D38008A8FFF0E00018917FF0E00018A17000E27
:100D480000018B17000E0001906F000E0001916FDB
:100D5800000E0001926F070E0001936F000186A13B
:100D68000CD0000189510001902700018A5100012F
:100D7800912300018B51000192230001D8900001BA
:100D8800883300018733000186330001D8900001C1
:100D9800893700018A3700018B370001932FDED78E
:100DA800090E0001936F000186A10CD00001895142
:100DB8000001902700018A510001912300018B5105
:100DC800000192230001D890000188330001873385
:100DD800000186330001D89000019233000191335D
:100DE800000190330001932FDED790C060F091C0CE
:100DF80061F092C062F08FC063F094C064F088EC38
:100E080009F060C086F061C087F062C088F0120007
:100E1800EACFABF0E1CFACF0E2CFADF0D9CFAEF096
:100E2800DACFAFF0F3CFB0F0F4CFB1F0F6CFB2F045
:100E3800F7CFB3F0F8CFB4F0F5CFB5F09EA603D056
:100E48009E965DEC00F0F2A403D0F294F0EC0CF066
:100E58009EAC71D09E9C000E0001B76F000E000181
:100E6800B66FC350C4CFA4F00001A56BA4C0A5F011
:100E78000001A46B0001A4110001B66F0001A55187
:100E88000001B76F000E0001896F000E00018A6F24
:100E9800400E00018B6F5C0E00016E6F870E000123
:100EA8006F6FC10E0001706FB6C068F0B7C069F00F
:100EB80024EC10F068C06BF069C06CF06AC06DF08B
:100EC80017EC03F06BC07AF06CC07BF06DC07CF05F
:100ED800D80E0001776F130E0001786F460E0001DF
:100EE800796FBEEC07F077C086F078C087F079C0DC
:100EF80088F051EC06F086C095F087C096F088C05F
:100F080097F093EC05F095C0A4F096C0A5F097C0B3
:100F1800A6F098C0A7F0A4C0B6F0A5C0B7F0330EED
:100F28000001756F0001B7C077F00001B6C076F018
:100F3800020E0DEC10F0EBEC0DF0B5C0F5FFB4C0EF
:100F4800F8FFB3C0F7FFB2C0F6FFB1C0F4FFB0C0FE
:100F5800F3FFAFC0DAFFAEC0D9FFADC0E2FFACC04F
:100F6800E1FFABC0EAFFAAC0E9FFA9C0FBFFA8C028
:100F7800FAFF1100000179C07DF000017E6B7F6BE4
:100F88000001783500017D3701E37E8100017D5144
:100F98000001846F000184670AD0000E0001776F9A
:100FA800000E0001786F000E0001796F1200000139
:100FB8007CC07DF000017E6B7F6B00017B350001FA
:100FC8007D3701E37E8100017D510001856F0001BD
:100FD80085670AD0000E0001776F000E0001786F58
:100FE800000E0001796F1200000E0001816F000EE3
:100FF8000001826F000E0001836F00018551890F87
:101008000001845F79C085F000017C510001851BD7
:10101800800E000185170001788FFF0E00017717F9
:10102800FF0E00017817000E0001791700017B8F71
:10103800FF0E00017A17FF0E00017B17000E00015A
:101048007C17180E0001806F0001D89000018137CD
:10105800000182370001833700017A510001775D72
:1010680000017B510001785900017C510001795938
:10107800D8A00ED000017A510001775F00017B51A2
:101088000001785B00017C510001795B00018181DE
:101098000001D890000177370001783700017937CF
:1010A8000001802FD1D781C060F082C061F083C079
:1010B80062F084C063F085C064F088EC09F060C019
:1010C80077F061C078F062C079F01200010120EE7B
:1010D80035F001017651D92601017751DA22DF5026
:1010E80001017F6F01017F510D0DF350010176253C
:1010F8000101826FF450010177210101836F010E14
:1011080082C1D9FF83C1DAFFDF626DD0010120EE11
:1011180001F001018251D92601018351DA22DF5001
:101128000101785DD8B002D0FD0E1200010120EE59
:1011380001F001018251D92601018351DA22DF50E1
:1011480001017D6F01017D510101806F0101816BFA
:1011580001017CC16DF101017BC16CF1030E01013C
:10116800822501017D6F000E0101832101017E6F3F
:101178007DC16EF17EC16FF180C170F181C171F1E5
:1011880073EC0EF0010120EE35F001017651D926FD
:1011980001017751DA22010110EE35F00101765193
:1011A800E12601017751E222E75001017D6F01013B
:1011B8007D29030BDF6E010120EE02F0010182514F
:1011C800D92601018351DA2279C1E1FF7AC1E2FF10
:1011D800DFCFE7FF82C1D9FF83C1DAFF000EDF6EE0
:1011E800010180511200FC0E1200000120EE35F0C2
:1011F80000016A51D92600016B51DA22DF50000143
:10120800736F000173510D0DF35000016A25000141
:10121800766FF45000016B210001776F010E76C0E4
:10122800D9FF77C0DAFFDF626DD0000120EE01F050
:1012380000017651D92600017751DA22DF500001EA
:101248006C5DD8B002D0FD0E1200000120EE01F056
:1012580000017651D92600017751DA22DF500001CA
:10126800716F000171510001746F0001756B00010D
:1012780070C061F000016FC060F0030E00017625B8
:101288000001716F000E000177210001726F71C0BB
:1012980062F072C063F074C064F075C065F09BECD6
:1012A8000EF0000120EE35F000016A51D926000148
:1012B8006B51DA22000110EE35F000016A51E12687
:1012C80000016B51E222E7500001716F00017129A2
:1012D800030BDF6E000120EE02F000017651D926E3
:1012E80000017751DA226DC0E1FF6EC0E2FFDFCF67
:1012F800E7FF76C0D9FF77C0DAFF000EDF6E000186
:1013080074511200FC0E120000016351D8B408D0C9
:10131800000160510001611100016211D8A414D0CC
:10132800000E0001606F000E0001616F000E0001E9
:10133800626F12000001632B0001D8900001623334
:101348000001613300016033000E000160150001E7
:10135800656F000E000161150001666FFE0E000149
:1013680062150001676F0001655166116711D8B4F5
:1013780014D0E0D70001632B010E00016027000E96
:1013880000016123000E000162230001D8900001D2
:1013980062330001613300016033000E0001601503
:1013A8000001656F000E000161150001666FFF0EF8
:1013B800000162150001676F000165516611671130
:1013C800D8B40BD0D7D7000163070001D89000012B
:1013D80060370001613700016237000161AFF3D760
:1013E800000163B102D00001619F0001D89063330E
:1013F800000163510001621300016451D8B402D0A6
:101408000001628F60C060F061C061F062C062F08C
:1014180012000101706F010120EE19F00101C9519C
:10142800D9260101CA51DA22000EDF6E3ED0010131
:1014380020EE19F00101C951D9260101CA51DA2259
:10144800DF5001016E6F01016E51010DF350010172
:101458006C25D96EF45001016D21DA6E010110EE90
:1014680019F00101C951E1260101CA51E222E750F0
:1014780001016F6F01016F51010D0F0EF326000E70
:10148800F422F3500101C925E16EF4500101CA218B
:10149800E26EDFCFE7FF010120EE19F00101C9512B
:1014A800D9260101CA51DA22DF2A010120EE19F0FA
:1014B8000101C951D9260101CA51DA22DF500101BF
:1014C8006E6F0101705101016E5DD8A0B0D70101A6
:1014D80020EE19F00101C951D9260101CA51DA22B9
:1014E800010170C1DFFF010120EE1AF00101C951AD
:1014F800D9260101CA51DA22010EDF6E010120EE60
:101508000FF00101C951D9260101CA51DA22DF5071
:10151800C96EC6881200010178C17DF101017E6B98
:10152800010120EE34F001017651D92601017751ED
:10153800DA22DF5001017F6F01017F510D0DF35059
:10154800010176250101806FF45001017721010125
:10155800816F80C1D9FF81C1DAFFDF50D8B402D0D2
:10156800FF0E1200010120EE01F001018051D92681
:1015780001018151DA22010178C1DFFF010120EE6A
:1015880002F001018051D92601018151DA220101BD
:1015980079C1DFFF030E0101802501016C6F000E88
:1015A8000101812101016D6F01017BC16FF1010111
:1015B8007AC16EF17DC170F17EC171F173EC0EF0EC
:1015C800010120EE34F001017651D926010177514D
:1015D800DA22010110EE34F001017651E126010111
:1015E8007751E222E75001017C6F01017C29030B4E
:1015F800DF6E80C1D9FF81C1DAFF010EDF6E010EF7
:10160800120000016CC070F00001716B000120EE47
:1016180034F000016A51D92600016B51DA22DF50FB
:101628000001726F000172510D0DF35000016A251F
:101638000001736FF45000016B210001746F73C0D7
:10164800D9FF74C0DAFFDF50D8B402D0FF0E120001
:10165800000120EE01F000017351D92600017451F8
:10166800DA2200016CC0DFFF000120EE02F0000169
:101678007351D92600017451DA2200016DC0DFFFD1
:10168800030E000173250001606F000E0001742134
:101698000001616F00016FC063F000016EC062F06D
:1016A80070C064F071C065F09BEC0EF0000120EE94
:1016B80034F000016A51D92600016B51DA22000189
:1016C80010EE34F000016A51E12600016B51E2226C
:1016D800E7502E6E2E28030BDF6E73C0D9FF74C03F
:1016E800DAFF010EDF6E010E12002E6E010120EEF0
:1016F8000BF00101C951D9260101CA51DA22010EA4
:10170800DF6E010120EE0AF00101C951D92601015D
:10171800CA51DA22000EDF6E2E50D8B43DD0C7AAC7
:1017280021D0010120EE0CF00101C951D926010197
:10173800CA51DA22050EDF6E010120EE0EF001011A
:10174800C951D9260101CA51DA22DF2A010120EE46
:101758000DF00101C951D9260101CA51DA22050E3D
:10176800DF6E1200C7A40CD0010120EE0CF00101BD
:10177800C951D9260101CA51DA22080EDF6E1200BA
:10178800010120EE0CF00101C951D9260101CA510D
:10179800DA22070EDF6E1200010120EE0CF00101C3
:1017A800C951D9260101CA51DA22060EDF6E12008C
:1017B8000DC012F0136A20EE34F00B50D9260C50ED
:1017C800DA22DF50146E14500D0DF3500B24156EF1
:1017D800F4500C20166E15C0D9FF16C0DAFFDF5082
:1017E800D8B402D0FF0E120020EE01F01550D92611
:1017F8001650DA220DC0DFFF20EE02F01550D92670
:101808001650DA220EC0DFFF030E1524016E000EFB
:101818001620026E10C004F00FC003F012C005F0CD
:1018280013C006F0C3EC0EF020EE34F00B50D926AE
:101838000C50DA2210EE34F00B50E1260C50E22264
:10184800E750116E1128030BDF6E15C0D9FF16C0C3
:10185800DAFF010EDF6E010E12009EAA3AD020EECA
:1018680004F02F50D9263050DA22DF501B6E1B505F
:10187800010DF3502F24D96EF4503020DA6E9AEC13
:1018880010F0DF6E20EE04F02F50D9263050DA2207
:10189800DF2A20EE04F02F50D9263050DA22040E29
:1018A800DF6217D01F0E176E30C019F02FC018F066
:1018B80020EE04F02F50D9263050DA22DF5079EC90
:1018C80010F020EE04F02F50D9263050DA22000E06
:1018D800DF6E32A61200AC98AC881E0E176E000E92
:1018E800196E000E186E000E79EC10F0120001014E
:1018F8006E511E0A6F11D8B4120001016E511F0AF1
:101908006F11D8A412000101705101017225D96E1E
:101918000101715101017321DA6E000EDF6E6CC195
:10192800D9FF6DC1DAFF010172C1DEFF010173C188
:10193800DDFF010120EE02F001016C51D926010101
:101948006D51DA22000EDF6E010120EE03F0010175
:101958006C51D92601016D51DA22010170C1DEFFF7
:10196800010171C1DDFF12000101716F000EAD6E42
:10197800000EAC6E010171B1AD88010171A302D0F6
:10198800AD8CAC8C010171B5AD8E010171A702D08F
:10199800AC8801D0AC8A010171B9AD84010171BB79
:1019A800AC86010171AD02D09D8A01D09D9A0101DA
:1019B80071AF02D09D8801D09D986CC1B0FF010124
:1019C8006DC16EF16EC16FF10101706B01016F5154
:1019D8007F6EAD8AAC8E1200000E0001616F000EA2
:1019E8000001606FD7EC10F00001000E0001796F64
:1019F80000017E0E0001786F0001000E00017B6F70
:101A08000001800E00017A6F020E93EC0FF00001C6
:101A18007C6F00017D6B00017CBF7D0700017C515C
:101A2800020A7D11D8A412000A0E0001756F000188
:101A3800000E0001776F0001800E0001766F020E24
:101A48000DEC10F0120001016DC1CAF101016CC169
:101A5800C9F1010120EE0AF00101C951D92601019D
:101A6800CA51DA22000EDF6E010120EE0BF00101EF
:101A7800C951D9260101CA51DA22000EDF6E0101CF
:101A880020EE0CF00101C951D9260101CA51DA2210
:101A9800050EDF6E010120EE0EF00101C951D926B5
:101AA8000101CA51DA22000EDF6E1200010120EE98
:101AB80034F001016C51D92601016D51DA22000E72
:101AC800DF6E010120EE35F001016C51D9260101CC
:101AD8006D51DA22000EDF6E000E01016E6F030EEB
:101AE80001016E6501D0120001016E510D0DF35018
:101AF80001016C25D96EF45001016D21DA6E000EDA
:101B0800DF6E01016E2B030E01016E65EDD7120029
:101B180001016F516E11D8B426D0010E0101706F0A
:101B280006D00101D8906E376F370101702B010183
:101B38006FAFF7D701016E5101016C5D01016F5163
:101B480001016D59D8A008D001016E5101016C5FE7
:101B580001016F5101016D5B0101D8906F336E3344
:101B68000101702FE7D76CC16CF16DC16DF11200E6
:101B780086C1D9FF87C1DAFFDE2A000EDD2286C1C1
:101B8800D9FF87C1DAFF0101DECF6CF10101DDCF9A
:101B98006DF1000E01016F6F0A0E01016E6F8CEC82
:101BA8000DF001016C51090A01016D11D8A4120050
:101BB800140E0101826F010187C184F1010186C100
:101BC80083F1020EDFEC0FF001018E6F1200316617
:101BD80001D0120002EC0FF0000163510001621104
:101BE800D8A41200E8EC10F0000161510001601166
:101BF800D8B412000001000E0001616F0001B80E98
:101C08000001606F3BEC10F00009D8A4120001013C
:101C1800010E0001616F0101360E0001606F3BEC9F
:101C280010F00009D8B4FBEC10F0120021EC0FF012
:101C38000101715101017011D8B41200010E316E09
:101C48000001000E01016D6F0001B80E01016C6FFB
:101C5800C6EC0FF00009D8B403D0000E316E1200A4
:101C68000101010E01016D6F0101360E01016C6F5A
:101C7800C6EC0FF00009D8B403D0000E316E120084
:101C88000A0EA9EC10F0DCD7000E316E0101010E2E
:101C980001016D6F0101360E01016C6F5AEC0DF0F8
:101CA8000001000E01016D6F0001B80E01016C6F9B
:101CB8005AEC0DF00101010E01016D6F0101000EDA
:101CC80001016C6F5AEC0DF00201020E01016D6FFB
:101CD8000201000E01016C6F5AEC0DF012000101B7
:101CE8006FC175F101016EC174F101016DC173F12C
:101CF80001016CC172F110D074C1D9FF75C1DAFF4E
:101D080072C1E1FF73C1E2FFDFCFE7FF0101744B4E
:101D1800752B0101724B732B01017007D8A0710755
:101D280001017029D8B47129D8B41200E5D700018F
:101D380063C069F0000162C068F0000161C067F02B
:101D4800000160C066F010D068C0D9FF69C0DAFF32
:101D580066C0E1FF67C0E2FFDFCFE7FF0001684B25
:101D6800692B0001664B672B00016407D8A0650743
:101D780000016429D8B46529D8B41200E5D704C095
:101D88000AF003C009F002C008F001C007F00ED045
:101D980009C0D9FF0AC0DAFF07C0E1FF08C0E2FFA7
:101DA800DFCFE7FF094A0A2A074A082A0506D8A00A
:101DB80006060528D8B40628D8B41200E9D7F2AC2C
:101DC80007D0000E01016F6F000E01016E6F120047
:101DD800E0EC10F001016D5101016C11D8B407D08D
:101DE800000E01016F6F000E01016E6F1200000EF0
:101DF80001016F6F010E01016E6F1200F2AC07D086
:101E0800000E0001636F000E0001626F1200E8EC23
:101E180010F00001615100016011D8B407D0000E24
:101E28000001636F000E0001626F1200000E0001D6
:101E3800636F010E0001626F1200E3EC0EF0010106
:101E48006F5101016E11D8A40FD0E0EC10F0010120
:101E58006D5101016C11D8A407D0000E0101716FFA
:101E6800010E0101706F1200000E0101716F000E6A
:101E78000101706F120001016E6F01016C51F30BCB
:101E88009A6E6EC16DF17F0E01016D170101D89038
:101E98006D35CD6E000ECF6E000ECE6E9E90010198
:101EA8006EAF02D09D8001D09D909ABE9A86CD805B
:101EB80012000101886F0101010E0101776F010114
:101EC800360E0101766F88C178F1010185C17AF17A
:101ED800010184C179F1010187C17CF1010186C149
:101EE8007BF16AEC08F012000101886F0001000E16
:101EF8000101776F0001B80E0101766F88C178F192
:101F0800010185C17AF1010184C179F1010187C11B
:101F18007CF1010186C17BF16AEC08F012002E6E9B
:101F28000201020E00016B6F0201000E00016A6FD0
:101F38002EC06CF0000179C06EF0000178C06DF021
:101F480000017BC070F000017AC06FF0F9EC08F076
:101F5800120002EE00F0360EEE6AE806FDE101EE30
:101F680000F06C0EEE6AE806FDE100EEB8F0360E01
:101F7800EE6AE806FDE1326A316A000EF86E000189
:101F880057EF04F0010120EE35F001016C51D9261C
:101F980001016D51DA22DF5001016E6F01016E51AE
:101FA8000D0DF35001016C25D96EF45001016D211E
:101FB800DA6EDF5012000101856F0201020E010185
:101FC800776F0201000E0101766F85C178F182C139
:101FD80079F1010184C17BF1010183C17AF18FECB0
:101FE8000AF01200CEEC10F001C01BF002C01CF089
:101FF8000B0E176E000E196E000E186E000E79EC9F
:1020080010F0000E026E000E016EC5EC10F0C282D8
:1020180012000001786F0001000E00016B6F0001D3
:10202800B80E00016A6F78C06CF075C06DF00001E1
:1020380077C06FF0000176C06EF005EC0BF012006F
:10204800000168C060F0000169C061F00001626BC6
:102058008E0E0001636F000E0001646F88EC09F0BA
:1020680060C068F061C069F062C06AF012000001E7
:1020780020EE35F000016051D92600016151DA22C5
:10208800DF502E6E2E500D0DF35000016025D96ED5
:10209800F45000016121DA6EDF50120001016C6F0B
:1020A8009388938A6CC1C8FF000EC76E000EC66E77
:1020B800000EC56E0E0EC612C78E8188818AC58035
:1020C800C68A120001016C6F01016C517F0BD56E3D
:1020D800000ED76E000ED66EF29401016CAF02D0DE
:1020E800F28A01D0F29AD58E12001A6E0101010E01
:1020F8000C6E0101360E0B6E1AC00DF017C00EF0F3
:1021080019C010F018C00FF0DCEC0BF01200010140
:102118006DC130F001016CC12FF020EE04F02F509A
:10212800D9263050DA22000EDF6E1200F20E321677
:10213800ACAC03D03290ACB03280ACB43284ACB228
:102148003286AFCF01F00150120001016C6FFA0E18
:1021580000F0E82EFDD701016C2FF9D712006CC1F1
:10216800D9FF6DC1DAFF000EDE6E000EDD6E1200C3
:102178009598959A959C959E8398839A839C839E1F
:10218800120001C003F002C004F004C0CFFF03C076
:10219800CEFF1200CECF03F0CFCF04F003C001F082
:1021A80004C002F0120060C062F061C063F063C056
:1021B800D7FF62C0D6FF1200000EF2AE010E010179
:1021C8006C6F01016D6B1200000EF2AE010E000182
:1021D800606F0001616B1200010173C175F10101AB
:1021E80072C174F11200D08EF28EF28C1200D38E6E
:0421F80003001200CE
:08FFF8008AF795FFF2F9FFF111
:00000001FF
